:100000000C942A000C9434000C9434000C943400AA
:100010000C9434000C9434000C9434000C94340090
:100020000C9434000C9434000C9434000C94340080
:100030000C9434000C9434000C9434000C94340070
:100040000C9434000C9434000C9434000C94340060
:100050000C94340011241FBECFE5D8E0DEBFCDBF25
:100060000E94AE040C94F3040C940000DF93CF9331
:10007000CDB7DEB781E060EF0E947F0382E06FEFD3
:100080000E947F0383E060E00E947F0384E063EFCF
:100090000E947F03CF91DF910895DF93CF93CDB777
:1000A000DEB727970FB6F894DEBF0FBECDBF8983AA
:1000B0006A834B838981853008F0F4C08981882365
:1000C00009F4F0C08A81883008F0ECC08B8181305F
:1000D00009F070C08981282F30E03F832E838E8104
:1000E0009F818230910551F12E813F81233031056E
:1000F00034F48E819F818130910561F0D3C02E81CF
:100100003F812330310571F18E819F8184309105CB
:10011000E9F1C8C0AAE3B0E0EAE3F0E08081482F4B
:100120008A81282F30E081E090E0022E02C0880F03
:10013000991F0A94E2F7842B8C93B4C0A7E3B0E034
:10014000E7E3F0E08081482F8A81282F30E081E0CA
:1001500090E0022E02C0880F991F0A94E2F7842BC8
:100160008C93A0C0A4E3B0E0E4E3F0E08081482FEA
:100170008A81282F30E081E090E0022E02C0880FB3
:10018000991F0A94E2F7842B8C938CC0A1E3B0E012
:10019000E1E3F0E08081482F8A81282F30E081E080
:1001A00090E0022E02C0880F991F0A94E2F7842B78
:1001B0008C9378C08B81882309F074C08981282FA3
:1001C00030E03D832C838C819D818230910561F1EB
:1001D0002C813D812330310534F48C819D81813027
:1001E000910569F05FC02C813D812330310589F193
:1001F0008C819D818430910509F440C053C0AAE3ED
:10020000B0E0EAE3F0E08081482F8A81282F30E0D7
:1002100081E090E0022E02C0880F991F0A94E2F755
:10022000809584238C933EC0A7E3B0E0E7E3F0E041
:100230008081482F8A81282F30E081E090E0022ED3
:1002400002C0880F991F0A94E2F7809584238C934B
:1002500029C0A4E3B0E0E4E3F0E08081482F8A8184
:10026000282F30E081E090E0022E02C0880F991F15
:100270000A94E2F7809584238C9314C0A1E3B0E044
:10028000E1E3F0E08081482F8A81282F30E081E08F
:1002900090E0022E02C0880F991F0A94E2F7809521
:1002A00084238C9327960FB6F894DEBF0FBECDBF84
:1002B000CF91DF910895DF93CF93CDB7DEB7279726
:1002C0000FB6F894DEBF0FBECDBF89836A834B8320
:1002D0008981853008F0F4C08981882309F4F0C051
:1002E0008A81883008F0ECC08B81813009F070C0C1
:1002F0008981282F30E03F832E838E819F81823039
:10030000910551F12E813F812330310534F48E81E6
:100310009F818130910561F0D3C02E813F812330D0
:10032000310571F18E819F8184309105E9F1C8C05A
:10033000ABE3B0E0EBE3F0E08081482F8A81282F27
:1003400030E081E090E0022E02C0880F991F0A94ED
:10035000E2F7842B8C93B4C0A8E3B0E0E8E3F0E0CC
:100360008081482F8A81282F30E081E090E0022EA2
:1003700002C0880F991F0A94E2F7842B8C93A0C0C7
:10038000A5E3B0E0E5E3F0E08081482F8A81282FE3
:1003900030E081E090E0022E02C0880F991F0A949D
:1003A000E2F7842B8C938CC0A2E3B0E0E2E3F0E0B0
:1003B0008081482F8A81282F30E081E090E0022E52
:1003C00002C0880F991F0A94E2F7842B8C9378C09F
:1003D0008B81882309F074C08981282F30E03D8308
:1003E0002C838C819D818230910561F12C813D812E
:1003F0002330310534F48C819D818130910569F081
:100400005FC02C813D812330310589F18C819D8134
:100410008430910509F440C053C0ABE3B0E0EBE396
:10042000F0E08081482F8A81282F30E081E090E041
:10043000022E02C0880F991F0A94E2F78095842348
:100440008C933EC0A8E3B0E0E8E3F0E08081482F61
:100450008A81282F30E081E090E0022E02C0880FD0
:10046000991F0A94E2F7809584238C9329C0A5E311
:10047000B0E0E5E3F0E08081482F8A81282F30E06A
:1004800081E090E0022E02C0880F991F0A94E2F7E3
:10049000809584238C9314C0A2E3B0E0E2E3F0E003
:1004A0008081482F8A81282F30E081E090E0022E61
:1004B00002C0880F991F0A94E2F7809584238C93D9
:1004C00027960FB6F894DEBF0FBECDBFCF91DF9158
:1004D0000895DF93CF9300D000D00F92CDB7DEB751
:1004E00089836A838981853008F074C08981882373
:1004F00009F470C08A81883008F06CC08981282F87
:1005000030E03D832C834C815D814230510549F1BF
:100510008C819D818330910534F42C813D81213083
:10052000310561F057C04C815D814330510561F167
:100530008C819D8184309105D1F14CC0E9E3F0E0DC
:100540008081282F30E08A81882F90E0A90102C0A5
:10055000559547958A95E2F7CA01582F51705B83EC
:100560003BC0E6E3F0E08081282F30E08A81882FCD
:1005700090E0A90102C0559547958A95E2F7CA0116
:10058000582F51705B8328C0E3E3F0E08081282F6F
:1005900030E08A81882F90E0A90102C055954795E7
:1005A0008A95E2F7CA01582F51705B8315C0E0E3CA
:1005B000F0E08081282F30E08A81882F90E0A90127
:1005C00002C0559547958A95E2F7CA01582F517098
:1005D0005B8302C08FEF8B838B810F900F900F9006
:1005E0000F900F90CF91DF910895DF93CF9300D0BC
:1005F00000D0CDB7DEB789836A838981853008F062
:1006000077C08981882309F473C08A81883008F013
:100610006FC08981282F30E03C832B838B819C81A4
:100620008230910551F12B813C812330310534F426
:100630008B819C818130910561F05AC02B813C8176
:100640002330310571F18B819C8184309105E9F172
:100650004FC0ABE3B0E0EBE3F0E08081482F8A814C
:10066000282F30E081E090E0022E02C0880F991F11
:100670000A94E2F784278C933BC0A8E3B0E0E8E358
:10068000F0E08081482F8A81282F30E081E090E0DF
:10069000022E02C0880F991F0A94E2F784278C93D8
:1006A00027C0A5E3B0E0E5E3F0E08081482F8A8130
:1006B000282F30E081E090E0022E02C0880F991FC1
:1006C0000A94E2F784278C9313C0A2E3B0E0E2E33C
:1006D000F0E08081482F8A81282F30E081E090E08F
:1006E000022E02C0880F991F0A94E2F784278C9388
:1006F0000F900F900F900F90CF91DF910895DF939F
:10070000CF9300D000D0CDB7DEB789836A838981CB
:100710008530B0F58981882399F18981282F30E0CF
:100720003C832B838B819C8182309105D9F02B8176
:100730003C812330310534F48B819C8181309105DB
:1007400061F01EC02B813C812330310581F08B810B
:100750009C818430910581F013C0EAE3F0E08A8146
:1007600080830EC0E7E3F0E08A81808309C0E4E380
:10077000F0E08A81808304C0E1E3F0E08A81808335
:100780000F900F900F900F90CF91DF910895DF930E
:10079000CF9300D000D0CDB7DEB789836A8389813B
:1007A0008530B0F58981882399F18981282F30E03F
:1007B0003C832B838B819C8182309105D9F02B81E6
:1007C0003C812330310534F48B819C81813091054B
:1007D00061F01EC02B813C812330310581F08B817B
:1007E0009C818430910581F013C0EBE3F0E08A81B5
:1007F00080830EC0E8E3F0E08A81808309C0E5E3EE
:10080000F0E08A81808304C0E2E3F0E08A818083A3
:100810000F900F900F900F90CF91DF910895DF937D
:10082000CF9300D000D0CDB7DEB7898389818530E2
:10083000B8F589818823A1F18981282F30E03C8394
:100840002B838B819C8182309105D9F02B813C8157
:100850002330310534F48B819C818130910561F026
:100860001FC02B813C812330310581F08B819C811D
:100870008430910581F014C0EBE3F0E090819A831D
:1008800011C0E8E3F0E020812A830CC0E5E3F0E04A
:1008900030813A8307C0E2E3F0E080818A8302C0BE
:1008A0009FEF9A838A810F900F900F900F90CF91B6
:1008B000DF910895DF93CF9300D00F92CDB7DEB7CD
:1008C00089838981853008F043C08981882309F4B0
:1008D0003FC08981282F30E03B832A838A819B8116
:1008E00082309105F1F02A813B812330310534F4C7
:1008F0008A819B818130910561F02AC02A813B81E8
:1009000023303105B1F08A819B8184309105C9F093
:100910001FC0ABE3B0E0EBE3F0E0808180958C9307
:1009200017C0A8E3B0E0E8E3F0E0808180958C9305
:100930000FC0A5E3B0E0E5E3F0E0808180958C9303
:1009400007C0A2E3B0E0E2E3F0E0808180958C9301
:100950000F900F900F90CF91DF910895DF93CF9379
:1009600000D000D0CDB7DEB70E94360081E06FEF37
:100970000E94C70381E060E00E9469021C82882314
:1009800011F481E08C8382E060E04C810E945B0185
:1009900081E061E00E9469021B82882311F481E0FA
:1009A0008B8382E061E04B810E945B0181E062E029
:1009B0000E9469021A82882311F481E08A8382E00E
:1009C00062E04A810E945B0181E063E00E9469026B
:1009D0001982882311F481E0898382E063E04981F0
:0A09E0000E945B01C7CFF894FFCF1F
:00000001FF
